:100000000C944B000C9468000C9468000C946800ED
:100010000C9468000C9468000C9468000C946800C0
:100020000C9468000C9468000C9468000C946800B0
:100030000C9468000C9468000C9468000C946800A0
:100040000C9468000C9468000C9468000C94680090
:100050000C9468000C9468000C9468000C94680080
:100060000C9468000C946800084AD73B3BCE016EA4
:1000700084BCBFFDC12F3D6C74319ABD56833DDAFF
:100080003D00C77F11BED9E4BB4C3E916BAAAABE0E
:10009000000000803F0011241FBECFEFD8E0DEBF7C
:1000A000CDBF12E0A0E0B1E0E2ECFFE102C00590BC
:1000B0000D92AE38B107D9F723E0AEE8B2E001C047
:1000C0001D92AD34B207E1F70E94F7080C94DF0FE0
:1000D0000C940000CF93C82F873061F460914B03DC
:1000E00070914C038AE291E00E946D0C80E090E0F8
:1000F000CF9108958A3019F48DE00E946A008091B2
:10010000C00085FFFCCFC093C600F0CF1F93CF93F4
:10011000DF93D82F192F8091C00087FFFCCF8091EB
:10012000C00084FD18C18091C00083FDAFC0C091A4
:10013000C600CD3011F0CA30D9F4E0914503F091FA
:1001400046038AE080836D2F712F0E946A00E09140
:100150004503F0914603118283EF92E090934603AA
:10016000809345038AE090E0DF91CF911F9108953D
:10017000C93099F4E0914503F091460323E0E2345D
:10018000F20769F560914B0370914C038AE291E0AC
:100190000E946D0C80E290E0E7CF80EE8C0F8F35EF
:1001A000B0F0C03A08F45BC0E0914503F09146031B
:1001B00083E0E234F80701F560914B0370914C0342
:1001C0008AE291E00E946D0C8C2F90E0CDCFE091FF
:1001D0004503F091460323E0E234F207ECCFCF0170
:1001E0000196909346038093450380E280836D2FB0
:1001F000712F0E946A00CECFCF01019690934603E3
:1002000080934503C0836D2F712F8C2F0E946A004D
:10021000C63190F5C330A1F1C830B1F680914503E5
:1002200090914603835F924079F270F26D2F712FA7
:1002300088E00E946A006D2F712F80E20E946A00A0
:100240006D2F712F88E00E946A0080914503909184
:10025000460301979093460380934503B5CFC5317C
:10026000B9F68091450390914603835F924009F06F
:1002700080F485E190E078CFC73121F1CF37CDCF41
:1002800083EF92E090934603809345038FEF9FEFB7
:100290006BCF6D2F712F88E00E946A006D2F712F38
:1002A00080E20E946A006D2F712F88E00E946A0030
:1002B0008091450390914603019790934603809364
:1002C0004503CFCFE0914503F091460331978081FC
:1002D000803299F56D2F712F88E00E946A006D2F92
:1002E000712F80E20E946A006D2F712F88E00E94BA
:1002F0006A008091450390914603019790934603CD
:100300008093450387E190E02FCF6D2F712F88E018
:100310000E946A006D2F712F80E20E946A006D2F8B
:10032000712F88E00E946A008091450390914603F6
:1003300001979093460380934503E0914503F09124
:10034000460382E0E33FF807E9F2E0F2319780816B
:100350008032D9F6D7CF8EEF9FEF06CF8A508D30FF
:1003600048F4E82FF0E0EE0FFF1FE25FFE4F8081C0
:100370009181089582E391E00895CF93DF9300D0B7
:1003800000D0CDB7DEB769837A838B839C831092CC
:10039000B90060E074E284EF90E029813A814B81FA
:1003A0005C810E940009205131094109510956958B
:1003B0004795379527952093B8000F900F900F9091
:1003C0000F90DF91CF9108951092BC0094EA909322
:1003D000BC009091BC0097FFFCCF9091B900987F32
:1003E000983011F09031A1F4880F862B8093BB00D8
:1003F00084E88093BC008091BC0087FFFCCF809193
:10040000B900887F883131F0803421F084E108958B
:100410008AE0089580E00895880F862B24EA34E866
:100420002093BC009091BC0097FFFCCF9091B90045
:10043000987F983011F0903199F78093BB003093FA
:10044000BC009091BC0097FFFCCF9091B900987FC1
:10045000903211F0983541F494E99093BC0090915A
:10046000BC0094FDFCCFDCCF80E008958093BB00FE
:1004700084E88093BC008091BC0087FFFCCF809112
:10048000B900887F883211F480E0089585E10895ED
:1004900084EC8093BC008091BC0087FFFCCF8091EE
:1004A000BB00089584E88093BC008091BC0087FF66
:1004B000FCCF8091BB000895DF92EF92FF920F93E3
:1004C0001F93CF93DF93D62E072F7A0160E00E940F
:1004D000E401182F81110AC0CD2DD02FEC0EFD1E86
:1004E000CE15DF0561F484E98093BC00812FDF9194
:1004F000CF911F910F91FF90EF90DF900895899118
:100500000E943602882361F3182FF0CFCF93C62FB5
:1005100060E00E94E401811108C08C2F0E94360225
:10052000811103C094E99093BC00CF910895AF92DC
:10053000BF92CF92DF92FF920F931F93CF93DF93DF
:10054000EB018A0161E00E94E401F82E5E01C12CFA
:10055000D12C01501109882399F08F2DDF91CF9173
:100560001F910F91FF90DF90CF90BF90AF900895B3
:100570000E944802F50181935F01FFEFCF1ADF0A65
:10058000C016D106A8F3C00FD11F0E945202888363
:1005900084E98093BC00E1CF84E98093BC00089596
:1005A000CF93DF9300D000D0CDB7DEB7E7E4F3E020
:1005B00020E031E031832083338322830E94660A66
:1005C0009B01AC0160E074E284E799E40E94BE09FB
:1005D00020E030E040E85FE369837A838B839C838B
:1005E00069817A818B819C810E94220969837A8347
:1005F0008B839C8369817A818B819C810E94900B83
:1006000069837A838B839C8369817A818B819C81C6
:100610000E94370A7093C5006093C400E1ECF0E0DB
:10062000808188618083E2ECF0E080818660808355
:1006300083EF92E090934603809345030F900F90D1
:100640000F900F90DF91CF9108958091C000082EF8
:10065000000C990B892F881F8827881F90E0089528
:10066000CF93DF93EC0180914703909148030E9460
:100670002E0C8F3F980771F0E3EFF2E00A9721F01C
:1006800080E090E007C0899381918111FCCF1882AE
:1006900081E090E0DF91CF9108958091F1029091F7
:1006A000F202892B71F480E591E09F938F930E9471
:1006B000970C81E090E09093F2028093F1020F900A
:1006C0000F9008951092F2021092F10208958FE5B2
:1006D00091E09F938F930E94970C0F900F90089535
:1006E0006F927F928F929F92AF92BF92CF92DF9242
:1006F000EF92FF920F931F93CF93DF9300D000D020
:1007000000D0CDB7DEB7162F072FF82EE92E3A010D
:10071000690169837A838B839C8369817A818B8168
:100720009C810E94300A7F936F9386E691E09F93AD
:100730008F937F926F920E94E00C6D827E820F9069
:100740000F900F900F900F900F90AD80BE80D5014D
:100750008D91BE83AD838E32C1F7812C912C8C1488
:100760009D04F4F0D7FE02C0C12CD12CF501EC0D94
:10077000FD1D1182C3010F900F900F900F900F90ED
:100780000F90DF91CF911F910F91FF90EF90DF902D
:10079000CF90BF90AF909F908F907F906F90089573
:1007A00019830A83FB82EC8269817A818B819C8127
:1007B0000E94300A69837A838B839C8389819A8122
:1007C000092E000CAA0BBB0B89839A83AB83BC83D5
:1007D000BC01CD010E94680A9B01AC0119830A8308
:1007E000FB82EC8269817A818B819C810E94220943
:1007F00020E030E040E251E469837A838B839C837C
:1008000069817A818B819C810E94230B162F072F8F
:10081000F82EE92E69837A838B839C8369817A81A0
:100820008B819C810E94300A605DAD81BE816D9399
:10083000BE83AD83BFEF8B1A9B0A91CF60E875E250
:1008400080E090E00E94D0020E9467038AE090E07E
:100850000E94AD0C8AE691E00E94B40C1092B9009F
:100860008CE08093B80060E08BE60E9486021092D4
:10087000D80260E08CE10E9486021092D70260E00C
:100880008BE10E9486021092D60260E08AE10E940B
:1008900086028091D802803161F120F5882371F1C0
:1008A000883089F180E090E0DC018093CC02909365
:1008B000CD02A093CE02B093CF028091D7028031B7
:1008C00071F130F5882381F1883099F180E090E072
:1008D000DC018093C8029093C902A093CA02B0932E
:1008E000CB0208958831F1F680E090E0A0E0B5E415
:1008F000DCCF80E090E0A0E8B5E4D7CF80E090E0E6
:10090000A0E8B6E4D2CF80E090E0A0E0B6E4CDCF9E
:100910008831E1F683E393E3A3E8B1E4DACF83E33C
:1009200093E3A3E0B2E4D5CF80E090E0A3E0B3E4AA
:10093000D0CF80E090E0A3E8B2E4CBCF2F923F92FB
:100940004F925F926F927F928F929F92AF92BF92DF
:10095000CF92DF92EF92FF920F931F93CF93DF938B
:10096000CDB7DEB760970FB6F894DEBF0FBECDBF30
:1009700041E050E060ED72E088E60E94970241E0BD
:1009800050E061ED72E088E60E94970241E050E09D
:1009900062ED72E088E60E949702C090CC02D0908F
:1009A000CD02E090CE02F090CF02A0EDB2E08C91AB
:1009B000282F30E040E050E029833A834B835C836A
:1009C000CA01B9010E94680AA701960169837A8366
:1009D0008B839C8369817A818B819C810E94BE0973
:1009E0006093ED027093EE028093EF029093F00219
:1009F0008091D102282F30E040E050E029833A83F3
:100A00004B835C83CA01B9010E94680AA701960161
:100A100069837A838B839C8369817A818B819C81B2
:100A20000E94BE096093E9027093EA028093EB0290
:100A30009093EC028091D202282F30E040E050E009
:100A400029833A834B835C83CA01B9010E94680AF7
:100A5000A701960169837A838B839C8369817A815C
:100A60008B819C810E94BE096093E5027093E6022F
:100A70008093E7029093E80241E050E064ED72E079
:100A800088E60E94970241E050E065ED72E088E65A
:100A90000E94970241E050E066ED72E088E60E9415
:100AA0009702C090C802D090C902E090CA02F090AC
:100AB000CB028091D402282F30E040E050E029831F
:100AC0003A834B835C83CA01B9010E94680AA7017B
:100AD000960169837A838B839C8369817A818B8178
:100AE0009C810E94BE095B0189879A87CB01A985F9
:100AF000BA858093E1029093E202A093E302B0935F
:100B0000E4028091D502282F30E040E050E02983B4
:100B10003A834B835C83CA01B9010E94680AA7012A
:100B2000960169837A838B839C8369817A818B8127
:100B30009C810E94BE093B014C01CB01D4018093F2
:100B4000DD029093DE02A093DF02B093E002809179
:100B5000D602282F30E040E050E029833A834B83CF
:100B60005C83CA01B9010E94680AA70196016983E2
:100B70007A838B839C8369817A818B819C810E949B
:100B8000BE096093D9027093DA028093DB029093DE
:100B9000DC02C090A402D090A502E090A602F090E2
:100BA000A702C092A002D092A102E092A202F0920B
:100BB000A30260919C0270919D0280919E0290918F
:100BC0009F020E94660AF62FE72F462F572FBC017F
:100BD0004093A4025093A5026093A6027093A702CB
:100BE000A7019601F983EA838B839C8369817A81CB
:100BF0008B819C810E94220920E030E04AE754E486
:100C000069837A838B839C8369817A818B819C81C0
:100C10000E94BE096B017C01CB01D7018093A80221
:100C20009093A902A093AA02B093AB022DEC3CECE6
:100C30004CEC5DE36091ED027091EE028091EF0269
:100C40009091F0020E942209462F572FBC01498340
:100C50005A836B837C83DB01CA018093ED029093FE
:100C6000EE02A093EF02B093F0022FE832EC45EFD2
:100C70005CE36091E9027091EA028091EB0290914D
:100C8000EC020E9423098B01888B9F87CB01A889E6
:100C9000BF858093E9029093EA02A093EB02B093A0
:100CA000EC022091E5023091E6024091E70250917A
:100CB000E8022D833E834F835887CA01B9010E9401
:100CC000230B1B012C0129813A814B815C81CA01D4
:100CD000B9010E94230B9101A2016D837E838F8352
:100CE00098876D817E818F8198850E9423096D830D
:100CF0007E838F8398876D817E818F8198850E9406
:100D0000BA0B9B01AC010D831E8388898F839F855D
:100D100098876D817E818F8198850E94BE096D8341
:100D20007E838F8398876D817E818F8198850E94D5
:100D30008F0920E030E044E353E46D837E838F83AA
:100D400098876D817E818F8198850E94230B2BED82
:100D50003FE049E450E46D837E838F8398876D8103
:100D60007E818F8198850E94BE096B877C878D87E5
:100D70009E87CB01AD85BE858093C4029093C5024A
:100D8000A093C602B093C702980148895F850D837E
:100D90001E83A889AF83BF85B8876D817E818F81CF
:100DA00098850E94230B9101A2016D837E838F831E
:100DB00098876D817E818F8198850E9423096D833C
:100DC0007E838F8398876D817E818F8198850E9435
:100DD000BA0B29813A814B815C81505829833A832F
:100DE0004B835C839B01AC0169817A818B819C81FF
:100DF0000E94BE0969837A838B839C8369817A818F
:100E00008B819C810E948F0920E030E044E353E411
:100E100069837A838B839C8369817A818B819C81AE
:100E20000E94230B2BED3FE049E450E469837A8371
:100E30008B839C8369817A818B819C810E94BE090E
:100E40006F877D83182F092FCB01A12FB02F80939F
:100E5000C0029093C102A093C202B093C302960154
:100E6000A70169827A828B829C8269817A818B81D7
:100E70009C810E94230B2091B8023091B9024091CD
:100E8000BA025091BB0269837A838B839C83698108
:100E90007A818B819C810E9423094B01782E692ED7
:100EA0009601A701A982BA8289858B839A859C8342
:100EB00069817A818B819C810E94230B2091BC02E5
:100EC0003091BD024091BE025091BF0269837A8386
:100ED0008B839C8369817A818B819C810E94230909
:100EE0002FE832EC45E75FE369837A838B839C8349
:100EF00069817A818B819C810E94230B6B017C012B
:100F00002AE037ED43E25DE3AB85A983BC85BA8374
:100F1000ED85EB83FE85FC8369817A818B819C81E1
:100F20000E94230B9B01AC01C982DA82EB82FC8216
:100F300069817A818B819C810E9423096B017C01EC
:100F4000CB01D7018093BC029093BD02A093BE0257
:100F5000B093BF022FE832EC45E75FE389829A82C3
:100F60007B826C8269817A818B819C810E94230BB8
:100F70004B015C012AE037ED43E25DE38F85898315
:100F80009D819A831B830C8369817A818B819C81EB
:100F90000E94230B9B01AC0189829A82AB82BC82A6
:100FA00069817A818B819C810E942309362F272FAA
:100FB000462F572FBC014093B8025093B90260935B
:100FC000BA027093BB02A601B7014093B0025093DE
:100FD000B1026093B2027093B302432F522FBC014F
:100FE0004093AC025093AD026093AE027093AF0297
:100FF00060960FB6F894DEBF0FBECDBFDF91CF91E4
:101000001F910F91FF90EF90DF90CF90BF90AF9026
:101010009F908F907F906F905F904F903F902F9018
:1010200008950F931F93CF93DF9300D000D0CDB7D7
:10103000DEB760E875E280E090E00E94D0020E9496
:1010400067030E949E048DE791E09F938F930E9417
:10105000970C8091ED029091EE02A091EF02B09179
:10106000F00222E030E04EE852E0BC01CD010E94E7
:1010700070030EE812E01F930F93A5E8B1E0BF9351
:10108000AF930E94970C8CE290E00E94AD0C88E830
:1010900091E09F938F930E94970C8091E902909129
:1010A000EA02A091EB02B091EC0222E030E0A8014C
:1010B000BC01CD010E9470031F930F93A5E8B1E01E
:1010C000BF93AF930E94970C8CE290E00E94AD0C0E
:1010D00080E991E09F938F930E94970C8091E502A5
:1010E0009091E602A091E702B091E80222E030E0A0
:1010F000A801BC01CD010E947003C8010E94B40C7C
:1011000088E991E09F938F930E94970C8091BC0295
:101110009091BD02A091BE02B091BF0222E030E0EA
:10112000A801BC01CD010E9470031F930F93A5E895
:10113000B1E0BF93AF930E94970C8CE290E00E94C5
:10114000AD0C84EA91E09F938F930E94970C80915D
:10115000B8029091B902A091BA02B091BB0222E00C
:1011600030E0A801BC01CD010E9470031F930F93D2
:10117000A5E8B1E0BF93AF930E94970C8CE290E09A
:101180000E94AD0C80EB91E09F938F930E94970C8F
:101190008091B4029091B502A091B602B091B702CD
:1011A00089839A83AB83BC8322E030E0A801BC0131
:1011B000CD010E947003C8010E94B40C9FEFA6E706
:1011C000B1E09150A040B040E1F700C000000FB680
:1011D000F894DEBF0FBECDBF0F900F900F900F9011
:1011E000DF91CF911F910F9108950C941E040E94DE
:1011F00011088FE39CE90197F1F700C00000F7CFD9
:10120000A1E21A2EAA1BBB1BFD010DC0AA1FBB1F0A
:10121000EE1FFF1FA217B307E407F50720F0A21B7C
:10122000B30BE40BF50B661F771F881F991F1A94E9
:1012300069F760957095809590959B01AC01BD0113
:10124000CF0108955058BB27AA270E943A090C9451
:10125000E10A0E94D30A38F00E94DA0A20F039F439
:101260009F3F19F426F40C94A90A0EF4E095E7FBCD
:101270000C94A30AE92F0E94F20A58F3BA176207E6
:1012800073078407950720F079F4A6F50C94140BE6
:101290000EF4E0950B2EBA2FA02D0B01B901900191
:1012A0000C01CA01A0011124FF27591B99F0593FD5
:1012B00050F4503E68F11A16F040A22F232F342F1D
:1012C0004427585FF3CF469537952795A795F0406B
:1012D0005395C9F77EF41F16BA0B620B730B840B80
:1012E000BAF09150A1F0FF0FBB1F661F771F881F38
:1012F000C2F70EC0BA0F621F731F841F48F4879590
:1013000077956795B795F7959E3F08F0B0CF939581
:10131000880F08F09927EE0F979587950895DF932A
:10132000DD27B92FBF7740E85FE316161706480799
:101330005B0718F4D92F0E941B0B9F938F937F9309
:101340006F930E94FA0BE8E6F0E00E94AC0A0E945C
:10135000E10A2F913F914F915F910E94360BDD235F
:1013600051F09058A2EA2AED3FE049EC5FE3D078D3
:101370005D270E943A09DF910C94E10A0E94D2098C
:101380000C94E10A0E94DA0A58F00E94D30A40F055
:1013900029F45F3F29F00C94A30A51110C94150B0A
:1013A0000C94A90A0E94F20A68F39923B1F3552319
:1013B00091F3951B550BBB27AA2762177307840768
:1013C00038F09F5F5F4F220F331F441FAA1FA9F3FE
:1013D00035D00E2E3AF0E0E832D091505040E695EC
:1013E000001CCAF72BD0FE2F29D0660F771F881F4D
:1013F000BB1F261737074807AB07B0E809F0BB0B40
:10140000802DBF01FF2793585F4F3AF09E3F510553
:1014100078F00C94A30A0C94150B5F3FE4F3983E0C
:10142000D4F3869577956795B795F7959F5FC9F73C
:10143000880F911D9695879597F90895E1E0660FBD
:10144000771F881FBB1F621773078407BA0720F036
:10145000621B730B840BBA0BEE1F88F7E09508959F
:101460000E94370A6894B1110C94150B08950E94DC
:10147000FA0A88F09F5798F0B92F9927B751B0F022
:10148000E1F0660F771F881F991F1AF0BA95C9F708
:1014900014C0B13091F00E94140BB1E008950C9487
:1014A000140B672F782F8827B85F39F0B93FCCF33A
:1014B000869577956795B395D9F73EF49095809585
:1014C000709561957F4F8F4F9F4F0895E89409C0A5
:1014D00097FB3EF490958095709561957F4F8F4F67
:1014E0009F4F9923A9F0F92F96E9BB279395F6957D
:1014F000879577956795B795F111F8CFFAF4BB0FFB
:1015000011F460FF1BC06F5F7F4F8F4F9F4F16C05E
:10151000882311F096E911C0772321F09EE8872FE8
:10152000762F05C0662371F096E8862F70E060E0A4
:101530002AF09A95660F771F881FDAF7880F96951D
:10154000879597F9089597F99F6780E870E060E0C4
:1015500008959FEF80EC0895DF93CF931F930F932F
:10156000FF92EF92DF927B018C01689406C0DA2E25
:10157000EF010E94360BFE01E894A591259135916B
:1015800045915591A6F3EF010E943A09FE0197019A
:10159000A801DA9469F7DF90EF90FF900F911F9107
:1015A000CF91DF91089500240A94161617061806A5
:1015B0000906089500240A94121613061406050657
:1015C0000895092E0394000C11F4882352F0BB0FE8
:1015D00040F4BF2B11F460FF04C06F5F7F4F8F4F4B
:1015E0009F4F089557FD9058440F551F59F05F3F86
:1015F00071F04795880F97FB991F61F09F3F79F035
:1016000087950895121613061406551FF2CF4695B6
:10161000F1DF08C0161617061806991FF1CF869538
:101620007105610508940895E894BB27662777271C
:10163000CB0197F908959B01AC0160E070E080E870
:101640009FE30C94BE090E94360B0C94E10A0E94A1
:10165000D30A38F00E94DA0A20F0952311F00C9496
:10166000A30A0C94A90A11240C94150B0E94F20AE7
:1016700070F3959FC1F3950F50E0551F629FF001E5
:10168000729FBB27F00DB11D639FAA27F00DB11DFE
:10169000AA1F649F6627B00DA11D661F829F222787
:1016A000B00DA11D621F739FB00DA11D621F839F0E
:1016B000A00D611D221F749F3327A00D611D231FE4
:1016C000849F600D211D822F762F6A2F11249F5732
:1016D00050409AF0F1F088234AF0EE0FFF1FBB1F35
:1016E000661F771F881F91505040A9F79E3F5105F4
:1016F00080F00C94A30A0C94150B5F3FE4F3983E22
:10170000D4F3869577956795B795F795E7959F5F9D
:10171000C1F7FE2B880F911D9695879597F908952F
:101720000E94FA0AE8F09E37E8F09639B8F49E383D
:1017300048F4672F782F8827985FF9CF869577959B
:10174000679593959539D0F3B62FB1706B0F711DD6
:10175000811D20F487957795679593950C94FE0BE2
:101760000C94190C0C94150B19F416F40C94A90A8A
:101770000C94190C0E94FA0AB8F39923C9F3B6F332
:101780009F57550B87FF0E94270C0024A0E640EAD4
:10179000900180585695979528F4805C660F771FC6
:1017A000881F20F026173707480730F4621B730B99
:1017B000840B202931294A2BA695179407942025BC
:1017C00031254A2758F7660F771F881F20F0261704
:1017D0003707480730F4620B730B840B200D311D63
:1017E000411DA09581F7B901842F9158880F9695D6
:1017F000879508959B01AC010C94230B882371F409
:10180000772321F09850872B762F07C0662311F499
:1018100099270DC09051862B70E060E02AF09A95D0
:10182000660F771F881FDAF7880F9695879597F9C7
:1018300008959F3F31F0915020F4879577956795F3
:10184000B795880F911D9695879597F908959150B2
:101850005040660F771F881FD2F70895CF93DF930C
:10186000EC018B8180FF1BC086FF0CC08F7B8B83BC
:101870008E819F8101969F838E838A8190E0DF9184
:10188000CF91089582FF19C0E881F9819081292FB5
:10189000092E000C330B911105C080628B838FEFF2
:1018A0009FEFEDCF3196F983E8838E819F8101967A
:1018B0009F838E83C9019927E2CFEA85FB85CE01FC
:1018C00009959C0197FFF1CF8B812F3F3F4F19F472
:1018D00090E1892BE3CF90E2FCCFEF92FF920F9340
:1018E0001F93CF93DF938B01DB0113962C91E12C97
:1018F000F12C21FD12C0EE24EA94FF24FA9411C0C9
:10190000D8011896ED91FC91B8010995892B21F029
:10191000EE24EA94FF24FA94CE01EC01899181111E
:10192000EFCFC701CDB7DEB7E6E00C94D00FA0E053
:10193000B0E0EDE9FCE00C94B80FAE014B5F5F4FF7
:10194000FA0161917191AF018091490390914A032D
:101950000E94030DE2E00C94D40F60914903709152
:101960004A030E941A0F08950F931F93CF93DF939A
:10197000E0914903F0914A03238100E010E021FD4A
:101980000EC00FEF1FEFC801DF91CF911F910F9194
:1019900008950995892B11F00FEF1FEFCE01EC018F
:1019A00089916091490370914A03DB011896ED918A
:1019B000FC918111EECF8AE00995892B21F3E1CFCB
:1019C000AEE0B0E0E6EEFCE00C94B60F0D891E89A7
:1019D00086E08C831A8309838FEF9FE79E838D8334
:1019E000AE01475E5F4F6F89788DCE0101960E94F0
:1019F000030D2F813885020F131FF80110822E96D8
:101A0000E4E00C94D20FAFE0B0E0E9E0FDE00C942C
:101A1000AB0F6C017B018A01DC0117961C921E92B0
:101A2000169713968C9181FFECC12AE0522EF60195
:101A30009381F70193FD859193FF81917F01882325
:101A400009F473C0853239F493FD859193FF819138
:101A50007F01853229F4B60190E00E941A0FE7CF8A
:101A6000912C612C712CFFE1F71508F446C08B32E4
:101A7000C9F1F8F48032C1F1833209F43BC08336F6
:101A800009F48AC0833709F493C0833509F0B6C0DE
:101A9000F801A190B1908F01692D70E076FC02C031
:101AA0006FEF7FEFC5010E94040F4C01689477F837
:101AB0005FC08D32E1F0803351F020ED280F2A30E5
:101AC00048F18E3209F039C0689476F802C0689403
:101AD00070F8F70193FD859193FF81917F0181114A
:101AE000C2CF33C0689471F8689472F8F2CF6894EA
:101AF00073F8EFCF689474F8ECCF77FC26C020ED34
:101B0000280F2A3070F476FE05C0959C200D112414
:101B1000922EDFCF659C200D1124622E689475F8FB
:101B2000D8CF8E3251F476FECFCFD60116968D9156
:101B30009C912F96EFE00C94C70F8C3619F46894A3
:101B400077F8C7CF883609F4C4CF982F9F7D955476
:101B5000933008F094CF0C5F1F4F8FE38983882464
:101B60008394912CAE014F5F5F4F5A01E89477F850
:101B700073FC05C0862D90E08816990640F181140B
:101B8000910461F5662009F452CFB60180E290E03D
:101B90000E941A0F6A94F6CFD8018C9189830E5F48
:101BA0001F4F88248394912CFE0131965F01DECF74
:101BB000D801AD90BD908D01692D70E076FC02C01A
:101BC0006FEF7FEFC5010E940F0F4C01CFCFB60121
:101BD00080E290E00E941A0F6A94CCCFF50177FC66
:101BE000859177FE81915F01B60190E00E941A0F06
:101BF00061106A94F1E08F1A9108C1CF843619F010
:101C0000893609F081C0F80177FE77C06191719142
:101C1000819191918F01272D2F76822E97FF09C0F8
:101C200090958095709561957F4F8F4F9F4F6894E9
:101C300087F82AE030E0AE014F5F5F4F5A010E9403
:101C40004A0F8A19A82EBA2C782C86FE0CC0E8946C
:101C500070F8A91440F484FE05C082FC03C0782DFE
:101C60007E7E772EB92C74FEA5C0FE01EA0DF11D13
:101C70008081803309F097C0872D897E782E73FC90
:101C80000EC070FEA6C09A2CB61418F4960C9B18C1
:101C9000B62C862D8B196B1408F480E0B80EB614A0
:101CA00008F099C06B1874FE98C0B60180E390E00C
:101CB0000E941A0F72FE09C088E590E071FC02C014
:101CC00088E790E0B6010E941A0FA91408F492C0A8
:101CD000AA94B12C9FEFA91AB90ADE0111964D0101
:101CE000AA0EBB1EF50182915F01B60190E00E9431
:101CF0001A0F8A149B04B1F745CF61917191072E99
:101D0000000C880B990B86CF872CE89484F82AE086
:101D100030E0853769F0572D597F852E803771F176
:101D200018F5883571F18F3609F0FFCE28E030E0E4
:101D3000F80187FE2EC081919191A191B1918C877C
:101D40009D87AE87BF878F01BE016F5F7F4F5B01AD
:101D5000AB016C857D858E859F850E944A0F8A190F
:101D6000A82EE89487F86FCF883709F0DECE84FE7E
:101D700002C0689482F820E130E0DACF689484F8F9
:101D8000F6CF74FE03C0652F6660862E20E132E038
:101D9000CFCF81919191AC0160E070E04C875D877D
:101DA0006E877F87D0CF72FC02C0B39468CFB394A4
:101DB000B39465CF872D8678882309F460CFF5CF5B
:101DC000B60180E290E00E941A0F83948614C0F35B
:101DD00060CF8B2CFBCF612C66CF872D8678882334
:101DE00009F473CF8BE271FE80E277FC8DE2B601DD
:101DF00090E069CFB60180E390E00E941A0F9A94B8
:101E000064CF8FEF9FEF95CEFC010590615070403D
:101E10000110D8F7809590958E0F9F1F0895FC01B3
:101E20006150704001900110D8F7809590958E0F09
:101E30009F1F08950F931F93CF93DF93182F092FA0
:101E4000EB018B8181FD09C01FEF0FEF812F902FD8
:101E5000DF91CF911F910F91089582FF14C02E81C1
:101E60003F818C819D81281739073CF4E881F981F5
:101E7000CF0101969983888310838E819F8101967B
:101E80009F838E83E3CFE885F985812F0995892B80
:101E9000A1F3DACFFA01AA27283051F1203181F1DC
:101EA000E8946F936E7F6E5F7F4F8F4F9F4FAF4F62
:101EB000B1E03ED0B4E03CD0670F781F891F9A1F75
:101EC000A11D680F791F8A1F911DA11D6A0F711D29
:101ED000811D911DA11D20D009F468943F912AE035
:101EE000269F11243019305D3193DEF6CF0108951D
:101EF000462F4770405D4193B3E00FD0C9F7F6CF4E
:101F0000462F4F70405D4A3318F0495D31FD405215
:101F1000419302D0A9F7EACFB4E0A69597958795AB
:101F200077956795BA95C9F700976105710508958A
:101F30009B01AC010A2E0694579547953795279536
:101F4000BA95C9F7620F731F841F951FA01D0895CE
:101F50002F923F924F925F926F927F928F929F92B9
:101F6000AF92BF92CF92DF92EF92FF920F931F93A7
:101F7000CF93DF93CDB7DEB7CA1BDB0B0FB6F89458
:101F8000DEBF0FBECDBF09942A88398848885F8498
:101F90006E847D848C849B84AA84B984C884DF8009
:101FA000EE80FD800C811B81AA81B981CE0FD11DED
:101FB0000FB6F894DEBF0FBECDBFED010895F894C3
:021FC000FFCF51
:101FC20000000003000000006A0086000000BC015F
:101FD2003201320132013201320132013201320167
:101FE2003201E6012802610268002A72696E672ADC
:101FF2000A00556E6B6E6F776E204932435F535401
:10200200415455535F4552524F5220636F646500ED
:102012001B5B33333B316D3E3E201B5B306D001B3F
:10202200631B5B334A0025642E00496E6974696143
:102032006C697A696E6720363035302000416363FF
:10204200656C583A00257300416363656C593A0028
:10205200416363656C5A3A004779726F416E676CEF
:1020620065583A004779726F416E676C65593A005C
:102072004779726F416E676C655A3A00536C6176AC
:102082006520646576696365206E6F7420616363A1
:10209200657074656420535441525420636F6E64BA
:1020A2006974696F6E00536C617665206465766948
:1020B2006365206E6F742061636B6E6F776C65640D
:1020C20067656420575249544520285452414E5363
:1020D2004D495429206F72205245414420636F6E4E
:1020E200646974696F6E7300536C61766520646510
:1020F20076696365206E6F742061636B6E6F776CB7
:1021020065646765642057524954452028545241FA
:102112004E534D49542920636F6E646974696F6E22
:1021220000536C61766520646576696365206E6F25
:10213200742061636B6E6F776C65646765642052AF
:0E21420045414420636F6E646974696F6E00DE
:00000001FF
